{
  "_format": "hh-sol-artifact-1",
  "contractName": "PingCounter",
  "sourceName": "contracts/ethereum_counter/contract.sol",
  "abi": [
    {
      "inputs": [
        {
          "internalType": "address",
          "name": "user",
          "type": "address"
        }
      ],
      "name": "getPingCount",
      "outputs": [
        {
          "internalType": "uint256",
          "name": "",
          "type": "uint256"
        }
      ],
      "stateMutability": "view",
      "type": "function"
    },
    {
      "inputs": [],
      "name": "ping",
      "outputs": [],
      "stateMutability": "nonpayable",
      "type": "function"
    },
    {
      "inputs": [
        {
          "internalType": "address",
          "name": "",
          "type": "address"
        }
      ],
      "name": "pingCounts",
      "outputs": [
        {
          "internalType": "uint256",
          "name": "",
          "type": "uint256"
        }
      ],
      "stateMutability": "view",
      "type": "function"
    }
  ],
  "bytecode": "0x6080604052348015600f57600080fd5b506102d78061001f6000396000f3fe608060405234801561001057600080fd5b50600436106100415760003560e01c80635c36b18614610046578063612bd02b14610050578063a43fd9ae14610080575b600080fd5b61004e6100b0565b005b61006a600480360381019061006591906101c9565b610106565b604051610077919061020f565b60405180910390f35b61009a600480360381019061009591906101c9565b61014e565b6040516100a7919061020f565b60405180910390f35b6000803373ffffffffffffffffffffffffffffffffffffffff1673ffffffffffffffffffffffffffffffffffffffff16815260200190815260200160002060008154809291906100ff90610259565b9190505550565b60008060008373ffffffffffffffffffffffffffffffffffffffff1673ffffffffffffffffffffffffffffffffffffffff168152602001908152602001600020549050919050565b60006020528060005260406000206000915090505481565b600080fd5b600073ffffffffffffffffffffffffffffffffffffffff82169050919050565b60006101968261016b565b9050919050565b6101a68161018b565b81146101b157600080fd5b50565b6000813590506101c38161019d565b92915050565b6000602082840312156101df576101de610166565b5b60006101ed848285016101b4565b91505092915050565b6000819050919050565b610209816101f6565b82525050565b60006020820190506102246000830184610200565b92915050565b7f4e487b7100000000000000000000000000000000000000000000000000000000600052601160045260246000fd5b6000610264826101f6565b91507fffffffffffffffffffffffffffffffffffffffffffffffffffffffffffffffff82036102965761029561022a565b5b60018201905091905056fea264697066735822122079f7dc968ff931a556935bfdab5578d881ead12a86bac7e7d6fc870412a4309c64736f6c634300081b0033",
  "linkReferences": {},
  "deployedLinkReferences": {}
}